:03000000020008F3
:0300610002000397
:050003001200B180FEB7
:10006400C0E0EFC0E07F1CE0139287D284C2841307
:100074009287D284C284139287D284C284139287D3
:10008400D284C284139287D284C284139287D28486
:10009400C284139287D284C284139287D284C28486
:1000A400A3DFC4D280C280D0E0FFD0E0227A00BABD
:1000B400E000501FEA2400F582E43400F58374075D
:1000C4005AF5F005F074FF8002C313D5F0FBFBF082
:1000D4000A80DC90000074FEF090001C74FDF09027
:1000E400003874FBF090005474F7F090007074EFD3
:1000F400F090008C74DFF09000A874BFF09000C4FE
:10010400747FF07A00EA75F01CA42400F582E434CC
:1001140000F5831200645302073095030A80E690C9
:10012400000012006490001C120064900038120059
:100134006490005412006490007012006490008C6B
:100144001200649000A81200649000C4120064803D
:01015400CEDC
:06003700E478FFF6D8FD9D
:100015007900E94400601B7A0090015978E075A0E9
:1000250000E493F2A308B8000205A0D9F4DAF2754A
:02003500A0FF2A
:10003D007800E84400600A790075A000E4F309D85F
:10004D00FC78E0E84400600C7901900000E4F0A336
:04005D00D8FCD9FAF8
:0D000800758107120155E5826003020003B7
:04015500758200228D
:00000001FF
